:1000000074FFF5A07E207D03D2A5C2A4ED9001006F
:10001000F97800E893F5B0E993F590EEFA7B0A7C65
:1000200000116718B8FFEC197809B9FFE6B2A5B25C
:10003000A480D91D7B007C00118D118D80CEEE75C2
:10004000F00284FE7B007C00118D118D22EE75F094
:1000500002A4FE7B007C00118D118D220D7B007CA3
:1000600000118D118D80A530A0F230A1C630A2DD27
:1000700030A3CB30A609DCEFDBED7B0ADAE9227D89
:10008000037E2074FFF5A0D2A5C2A4010CDBFEDC28
:02009000FC2250
:0A0100003F065B4F666D7D077F6FC1
:00000001FF
